:1008E800535443313546324B363053320D0A556135
:0F08F8007274204F4E20210D0A00636D0D0A000F
:10076A0075CA30E4F5C9759260F59112000312005A
:10077A000E12094975D7CC75D6FF758E14438E01B2
:10078A00D2ACD2A9D2AF12092E7BFF7A0879E8122D
:10079A0008C3C2CDD295C2CCE4F51CF51DC3E51D34
:1007AA009509FDE51C9508FCE41203538F1B8E1A6C
:1007BA008D198C187F9A7E997D597C40AB1BAA1A99
:1007CA00A919A81812011EE4FBFA79A078411202AD
:1007DA00278F1B8E1A8D198C18851C08851D09C236
:1007EA0096120003D296AF1BAE1AAD19AC18750E4D
:1007FA00011206907BFF7A0979021208C3E4FFFE10
:10080A007DC87C42AB1BAA1AA919A8181202C450A7
:0C081A0004D2CD8002C2CD12091F8081E3
:0600030000007F75DFFE26
:0100090022D4
:0E091F0000007F027ED37DE7DDFEDEFCDFFA06
:01092D0022A7
:0E092E0000007F5C7E327DEEDDFEDEFCDFFA37
:01093C002298
:10000E00438E805389F0758AE8758CFFC28DD28C31
:01001E0022BF
:0A094900E5A2543FF5A27598502274
:090953002000FDEFD200F599220D
:1008C3008B0A8A0B890CAB0AAA0BA90C12040D60C4
:1008D30013050CE50C7002050B14F912040DFF123D
:0508E300095380E22230
:0805A4008F128E118D108C0FD7
:1005AC00E4F516F515F514F513F517EC3350187F23
:1005BC002D120953AF12AE11AD10AC0F1204758F82
:1005CC00128E118D108C0FAF12AE11AD10AC0FEC52
:1005DC004D4E4F70057F30020953AF12AE11AD1066
:1005EC00AC0FEC4D4E4F6061AF16AE15AD14AC13A5
:1005FC00E47B0AFAF9F81204268F168E158D148CEA
:10060C0013E47B0AFAF9F8AF12AE11AD10AC0F126D
:10061C00087FAC00AD01AE02E5162BF516E5153ED4
:10062C00F515E5143DF514E5133CF513AF12AE11B9
:10063C00AD10AC0FE47B0AFAF9F812087F8F128E1A
:10064C00118D108C0F05178091AF171517EF6033B4
:10065C00E47B0AFAF9F8AF16AE15AD14AC13120818
:10066C007FEB2430FF120953AF16AE15AD14AC134B
:10067C00E47B0AFAF9F812087F8F168E158D148C0C
:03068C001380C612
:01068F002248
:080690008F0D8E0C8D0B8C0AFE
:100698009000001204A5000000009000041204A5B8
:1006A80000000000E4FFFEFDFCAB0DAA0CA90BA89E
:1006B8000A1202C450187F2D120953AF0DAE0CADAB
:1006C8000BAC0A12033D8F0D8E0C8D0B8C0AAF0DEF
:1006D800AE0CAD0BAC0A12038C900000120499AF5B
:1006E8000DAE0CAD0BAC0AC004C005C006C0079027
:1006F8000000E0FCA3E0FDA3E0FEA3E0FFEC120392
:100708004EA804A905AA06AB07D007D006D005D085
:10071800041200298F0D8E0C8D0B8C0AE50E601EBD
:10072800AF0DAE0CAD0BAC0AE4FBFA7920784112A0
:10073800011E8F0D8E0C8D0B8C0A150E80DE90001D
:1007480000E0FCA3E0FDA3E0FEA3E0FF1205A47F08
:100758002E120953AF0DAE0CAD0BAC0A12038C026E
:0207680005A4E6
:03000B00020826C2
:10082600C0E0C0F0C083C082C0D075D000C000C098
:1008360001C002C003C004C005C006C00730971E31
:10084600051DE51D7002051CAE1CFFE4FCFD7BFFCB
:100856007AFFF9F8C31204837004F51CF51DD0075E
:10086600D006D005D004D003D002D001D000D0D01D
:09087600D082D083D0F0D0E03232
:03002300020907C8
:10090700C0D0309809C298859980A29A92CC309924
:0809170004C299C200D0D032E5
:100026000203F8E86480F8E933E83360110460F00D
:10003600ED33EC337009E8FCE9FDEAFEEBFF220440
:1000460060DED3EB9FEA9EE99DE8C2E78CF0C2F73B
:1000560095F0400CE8CCF8E9CDF9EACEFAEBCFFB07
:100066001203C385D0F05804700320D5B3E804709A
:10007600075002B2D502040292D5EC0460F7E4CC34
:10008600C0E0C398F8603B94186008400DD0E0FBD0
:100096000203DAE4FBFAC9FC8028E830E406E4C986
:1000A600FBE4CAFCE830E305E4C9CACBFCE8540724
:1000B6006010F8C3E913F9EA13FAEB13FBEC13FC2F
:1000C600D8F130F52FC3E49CFCEF9BFFEE9AFEEDD2
:1000D60099FDD0E0FBEF4E4D4C701222DB0302037C
:1000E600FFEC2CFCEF33FFEE33FEED33FDED30E796
:1000F600EB0203DAEF2BFFEE3AFEED39FDD0E0FB23
:1001060050130BBB0003020402ED13FDEE13FEEFCA
:0801160013FFEC13FC0203DAF5
:10011E00EC4D6011E8497017ED33EC3304600DE4DB
:10012E00FCFFFEFD22E933E8330470F80203F812F7
:10013E0003C358046009E4CC2481500628500902F8
:10014E0004022840030203FFC0E0EB4A7044B9806A
:10015E0006D0E0FB0203EEEF4E701CBD8008EBFFF5
:10016E00EAFEE9FD80EBE98DF0A4FEE5F002020760
:10017E00E9CDF9EAFEEBFFEF89F0A4FCE5F0CE89BC
:10018E00F0A42EFFE435F0CD89F0A42DFEE435F079
:10019E008067EF4E7005BD80D780C3EF8BF0A4ACA7
:1001AE00F0EE8BF0A42CFCE435F0F8EF8AF0A42CE2
:1001BE00E5F038FCE433CB8DF0A42CFCE5F03BF8F5
:1001CE00EE8AF0A42CFCE5F038F8E433CF89F0A4E5
:1001DE002CFCE5F038CF3400CE89F0A42FFFE5F0EB
:1001EE003EFEE433C98DF0A42EFEE5F039CD8AF043
:1001FE00A42FFFE5F03EFEE43DFD33D0E0FB5007BB
:10020E000BBB000F020402EC2CFCEF33FFEE33FEAF
:06021E00ED33FD0203DADE
:10022400020402EC5D046005E8590470030203F85B
:100234001203C3580460F6EC4860F2EC7004FDFE4F
:10024400FF22C860DB2481C85009C39860025006AD
:100254000203FF9850CAF582E9294B4A7005AB8224
:100264000203EE75F0007C1A7880C3EF9BEE9AEDE2
:1002740099400DC3EF9BFFEE9AFEED99FDE842F025
:10028400DC23ACF0D0E0FFD0E0FED0E0FDAB822078
:10029400E7101BEB60BAEC2CFCEF33FFEE33FEED02
:1002A40033FD0203DAE803F830E705C0F075F00027
:1002B400EF2FFFEE33FEED33FD40B830E7C280AAE6
:1002C40074F8CC6480CCC86480C8F58204604FC3E1
:1002D400EB9FF5F0EA9E42F0E99D42F0E89C45F080
:1002E400603C501DE5825FFFE582D313CB5BCBF40A
:1002F4002B5582FB50280ABA002409B90020088033
:100304001DE5825BFBE582D313CF5FCFF4C3132FCC
:100314005582FF50090EBE00050DBD00010CC3EB54
:100324009FF5F0EA9E42F0E99D42F0E89C45F060BA
:0903340007CC4820E701B3EC22DC
:10033D00ED33EC33600A047003BD8004ECB2E7FCCE
:01034D00228D
:10034E0075F020800E75F010800575F0087D007E2A
:10035E00007F003392D530D503120475EC33401074
:10036E00EF33FFEE33FEED33FDEC33FCD5F0ED2233
:0E037E00E5F0247EA2D513CC92E7CDCEFF226F
:10038C00EDD2E7CD33EC3392D524814006E4FFFE69
:10039C00FDFC22FCE4CFCECDCC24E0501174FF80C8
:1003AC00EDC3CC13CCCD13CDCE13CECF13CF047065
:0703BC00F030D5DE020475EC
:1003C300E9D2E7C933E833F892D5EDD2E7CD33EC80
:0703D30033FC5002B2D522F9
:1003DA00EC30E7100FBF000C0EBE00080DBD000484
:1003EA000BEB6014A2D5EB13FCED92E7FD2274FF30
:1003FA00FCFDFEFF22E480F8A2D574FF13FC7D8089
:03040A00E480EF9C
:0300000002093DB5
:0C093D00787FE4F6D8FD75812002076A7F
:10040D00BB010689828A83E0225002E722BBFE02ED
:09041D00E32289828A83E4932220
:10042600E88FF0A4CC8BF0A42CFCE98EF0A42CFC75
:100436008AF0EDA42CFCEA8EF0A4CDA8F08BF0A4F3
:100446002DCC3825F0FDE98FF0A42CCD35F0FCEB52
:100456008EF0A4FEA9F0EB8FF0A4CFC5F02ECD3917
:0F046600FEE43CFCEAA42DCE35F0FDE43CFC2284
:10087F00C2D5E830E70FB2D5E4C39BFBE49AFAE4A4
:10088F0099F9E498F8EC30E717B2D51208B51205CC
:10089F0012E4C39BFBE49AFAE499F9E498F8800315
:1008AF0012051230D50DE4C39FFFE49EFEE49DFDBB
:0408BF00E49CFC2297
:0E047500C3E49FFFE49EFEE49DFDE49CFC2298
:10048300EB9FF5F0EA9E42F0E99D42F0EC6480C8F0
:0604930064809845F02290
:0C049900ECF0A3EDF0A3EEF0A3EFF022D6
:1004A500A8828583F0D083D0821204BC1204BC12CA
:1004B50004BC1204BCE473E493A3C583C5F0C583EF
:1004C500C8C582C8F0A3C583C5F0C583C8C582C8A1
:0104D5002204
:1004D60075F008758200EF2FFFEE33FECD33CDCCDD
:1004E60033CCC58233C5829BED9AEC99E582984060
:1004F6000CF582EE9BFEED9AFDEC99FC0FD5F0D63D
:10050600E4CEFBE4CDFAE4CCF9A88222B800C1B966
:100516000059BA002DEC8BF084CFCECDFCE5F0CBA4
:10052600F97818EF2FFFEE33FEED33FDEC33FCEBDD
:1005360033FB10D703994004EB99FB0FD8E5E4F998
:10054600FA227818EF2FFFEE33FEED33FDEC33FC85
:10055600C933C910D7059BE99A4007EC9BFCE99A79
:10056600F90FD8E0E4C9FAE4CCFB2275F010EF2FBE
:10057600FFEE33FEED33FDCC33CCC833C810D707BE
:100586009BEC9AE899400AED9BFDEC9AFCE899F8F9
:0E0596000FD5F0DAE4CDFBE4CCFAE4C8F9228C
:00000001FF
