:1001CD00535443313546324B363053320D0A556157
:1001DD007274204F4E20210D0A00B5DA00B4CED135
:0901ED00ADBBB70D0A000D0A00BC
:1000260075CA30E4F5C9759260F5911200031200A5
:100036000E12026975D7CC75D6FF758E14438E01E4
:10004600D2ACD2A9D2AF12024E7BFF7A0179CD1281
:1000560001F6D2CDD295C2CCE4F510F5110508E52E
:1000660008640A7002F508C3E511950AF50CE51057
:100076009509F50B85100985110AD296120003C25F
:10008600967BFF7A0179E71201F6E5082430FF1224
:10009600022D7BFF7A0179EA1201F6AE0BAF0C7CDA
:1000A600277D10120109EF2430FF12022DAE0BAF8F
:1000B6000C7C037DE81201097C007D0A120109EF20
:1000C6002430FF12022D7C037DE812021B7C007D8A
:1000D6006412021BAE0BAF0C1202227BFF7A01796F
:0A00E600F31201F612024E0200634D
:0600030000007F75DFFE26
:0100090022D4
:0E024E0000007F5C7E327DEEDDFEDEFCDFFA1E
:01025C00227F
:10000E00438E805389F0758AE8758CFFC28DD28C31
:01001E0022BF
:0A026900E5A2543FF5A2759850225B
:10021B00AE0BAF0C1201097C007D0A120109ED2413
:02022B0030FFA2
:09022D002000FDEFD200F599223A
:1001F6008B0D8A0E890FAB0DAA0EA90F1200F060A7
:1002060013050FE50F7002050E14F91200F0FF1228
:05021600022D80E22230
:03000B000201747B
:10017400C0E0C0F0C083C082C0D075D000C000C051
:1001840001C002C003C004C005C006C00730971EEA
:100194000511E51170020510AE10FFE4FCFD7BFFB4
:1001A4007AFFF9F8C312015E7004F510F511D00757
:1001B400D006D005D004D003D002D001D000D0D0D6
:0901C400D082D083D0F0D0E032EB
:03002300020236A0
:10023600C0D0309809C298859980A29A92CC3099FC
:0802460004C299C200D0D032BD
:0300000002025D9C
:0C025D00787FE4F6D8FD758120020026B1
:1000F000BB010689828A83E0225002E722BBFE020E
:09010000E32289828A83E4932240
:10010900BC000BBE0029EF8DF084FFADF022E4CCDA
:10011900F875F008EF2FFFEE33FEEC33FCEE9DECA3
:10012900984005FCEE9DFE0FD5F0E9E4CEFD22EDE9
:10013900F8F5F0EE8420D21CFEADF075F008EF2F33
:10014900FFED33FD4007985006D5F0F222C398FD24
:050159000FD5F0EA22C1
:10015E00EB9FF5F0EA9E42F0E99D42F0EC6480C818
:06016E0064809845F022B8
:00000001FF
